:020000040000FA
:060000000A128A11EE2F26
:100C8E008316031308140800831203138811081522
:100C9E00080083120313081188150800831203132A
:100CAE008812881308170800831203130813881379
:100CBE008816080083120313881208138817080079
:100CCE00F0007008203E8400831300088312031383
:100CDE008600080083160317890183160313860105
:100CEE0083120313860108008312031308080139C7
:100CFE00F200F3017208F0007308F100862E08006E
:100D0E003F3406345B344F3466346D347D340734EF
:100D1E007F346F3477347C3439345E3479347134C3
:100D2E00003483160313881308138812081408134B
:100D3E0088120811881183120313081188130813DF
:100D4E008812881108007E088A007F0882000A1225
:100D5E008A11AA260A128A118000840A04087D06C6
:100D6E0003190034FF0A0319FE0AAE2ECC2EC7302B
:100D7E00F200C12EF20BC02EC42EC52EFF30F0078E
:100D8E000318F10AFF30F107CC2E70087104031D11
:100D9E00D12ED22EBE2ED32E0800F601F701F80169
:100DAE000A128A1198260A128A110A128A117126BB
:100DBE000A128A110A128A1147260A128A11D02F94
:100DCE00D02F11300A128A1167260A128A110A12BE
:100DDE008A115B260A128A110A128A1150260A12E9
:100DEE008A110A128A117B260A128A117003710463
:100DFE00031D022F032FD02FF601F60AD02FD02F6E
:100E0E000330F7000030F8000A128A117B260A120E
:100E1E008A1170087104031D152F162FD02F023062
:100E2E00F4007408F600D02FD02F77080A128A111A
:100E3E0067260A128A11E830F0000330F1000A1218
:100E4E008A11BD260A128A11FF30F7070318F80A15
:100E5E00FF30F80777087804031D362F372F4F2FF2
:100E6E0000300A128A1167260A128A11E830F00041
:100E7E000330F1000A128A11BD260A128A110330BC
:100E8E00F7000030F8000330F4007408F600D02F9D
:100E9E000230F4007408F600D02FD02F0A128A11F7
:100EAE0055260A128A1177080A128A1167260A1223
:100EBE008A11E830F0000330F1000A128A11BD26C3
:100ECE000A128A11FF30F7070318F80AFF30F807E5
:100EDE0077087804031D742F752F8D2F00300A129A
:100EEE008A1167260A128A11E830F0000330F100E9
:100EFE000A128A11BD260A128A110430F700003038
:100F0E00F8000430F4007408F600D02F0330F4001B
:100F1E007408F600D02FD02F0A128A1161260A12F9
:100F2E008A110A128A114B260A128A1177080A129E
:100F3E008A1167260A128A11E830F0000330F10098
:100F4E000A128A11BD260A128A11FF30F7070318FA
:100F5E00F80AFF30F80777087804031DB72FB82F6B
:100F6E00C92F00300A128A1167260A128A11E83038
:100F7E00F0000330F1000A128A11BD260A128A11FE
:100F8E00F601D02F0430F4007408F600D02FD02FC5
:100F9E00D02F7608F400F5017508003A0319D82F02
:100FAE00D02F7408003A0319E82E013A0319072FBF
:100FBE00033A03191C2F013A0319552F073A031947
:100FCE00932FD02FD02FD02F0A128A1100288313DF
:100FDE003130FD000630FE008730FF0020308400E7
:100FEE000A128A11AE260A128A1183010A128A1176
:020FFE00D42EEF
:04400E00D4E0FFFFFC
:00000001FF
